:100000000C943C010C946D010C946D010C946D01E9
:100010000C946D010C946D010C946D010C946D01A8
:100020000C946D010C946D010C946D010C946D0198
:100030000C946D010C944F080C946D010C946D019F
:100040000C946D010C946D010C946D010C946D0178
:100050000C946D010C946D010C946D010C940508C9
:100060000C946D010C94D9080C94AF080C946D019C
:100070000C946D010C946D010C946D010C946D0148
:100080000C946D010C946D010C946D010C946D0138
:100090000C946D010C946D010C946D010C946D0128
:1000A0000C946D010C946D010C946D010C946D0118
:1000B0000C946D010C946D010C946D010C946D0108
:1000C0000C946D010C946D010C946D010C946D01F8
:1000D0000C946D010C946D010C946D010C946D01E8
:1000E0000C946D010C9415020C9403020C945605AB
:1000F0000C9423020C94DC010C9411020C947F04E8
:100100000C941F020C940F090C9404050C94F60136
:100110000C945D040C94D7010C9421040C940D02F2
:100120000C9429020C9455050C94A9060C94070212
:100130000C94F2010C94B7040C942D020C944E0410
:100140000C94EE010C941B020C94FD010C947104B0
:100150000C94FA010200002100240027002A002D3F
:10016000003000330001010000040107010A010012
:10017000002200250028002B002E00310034000250
:10018000010000050108010B0100000A0B02090C27
:100190000D0E08070304010000000000000000002D
:1001A000000000000000000000000000000000004F
:1001B000000000000012111000000000000000000C
:1001C000000000000000000000000000000000002F
:1001D0000020002300260029002C002F0032000000
:1001E00001000003010601090105050505070508D1
:1001F000080808020202020A0A08080404040401AA
:1002000001010101010101030303030303030304CB
:100210000707070C0C0C0C0C0C0C0C02020202065B
:10022000060606060606060B0B0B0B0B0B0B0B014B
:1002300002102020080810204010204080020102F7
:1002400001080402010102040810204080804020BF
:1002500010080402018004020180402010080402FA
:100260000108040201010204081020408001020478
:100270000810204080000F0911241FBECFEFD1E2EB
:10028000DEBFCDBF00E00CBF13E0A0E0B2E0EAE9C2
:10029000F3E200E00BBF02C007900D92A838B1074F
:1002A000D9F724E0A8E8B3E001C01D92AA38B2074C
:1002B000E1F711E0CCE3D1E000E006C021970109AD
:1002C000802FFE010E94C311CB33D10780E00807C5
:1002D000A9F70E947B090C94CB110C940000CF92DB
:1002E000DF92EF92FF92CF93DF93B0916604A0E08C
:1002F0008111AB2F8091670490E0880F991FAC01AA
:1003000041535E4FC0906C04D0906D04E0906E0439
:10031000F0906F0430E020E0FA01C591D491E881BB
:10032000B90190E080E0EB23EA130AC02F5F3F4F52
:100330006C157D058E059F0578F36FEF7FEFCB0180
:10034000DF91CF91FF90EF90DF90CF900895282F0D
:1003500030E0F901E757FE4F9491F901E15DFD4F5F
:10036000449127513E4FF9012491222309F435C0CD
:10037000992311F191509231F8F4E92FF0E0882798
:10038000EB53FE4F8F4F0C94C311F601FA01D701C6
:10039000EE01F201DC01FD01030207020D02110270
:1003A00015021B021F02DC01230229022D0280918B
:1003B00080008F7780938000E22FF0E0EE0FFF1F28
:1003C000E159FE4FA591B4918FB7F894EC9161116A
:1003D00048C040954E234C938FBF08958091800074
:1003E0008F7DE8CF80918000877FE4CF84B58F77C1
:1003F00084BDE2CF84B58F7DFBCF8091B0008F7735
:100400008093B000D9CF8091B0008F7DF9CF8091DB
:1004100090008F7780939000CFCF809190008F7D58
:10042000F9CF80919000877FF5CF8091A0008F77E2
:100430008093A000C1CF8091A0008F7DF9CF8091E3
:10044000A000877FF5CF809120018F7780932001D6
:10045000B3CF809120018F7DF9CF80912001877FDC
:10046000F5CF4E2BB8CFCF93DF9390E0FC01E15D49
:10047000FD4F249187519E4FFC0184918823C9F040
:1004800090E0880F991FFC01EB5AFE4FA591B491A3
:10049000FC01E159FE4FC591D49161110DC09FB788
:1004A000F8948C91209582238C938881282328832B
:1004B0009FBFDF91CF910895623051F49FB7F894B8
:1004C0003C91822F809583238C93E8812E2BEFCF54
:1004D0008FB7F894EC912E2B2C938FBFEACF3FB7B8
:1004E000F8948091BA039091BB03A091BC03B091A2
:1004F000BD0326B5A89B05C02F3F19F00196A11D8D
:10050000B11D3FBFBA2FA92F982F8827BC01CD015D
:10051000620F711D811D911D42E0660F771F881FBC
:10052000991F4A95D1F708958F929F92AF92BF92EB
:10053000CF92DF92EF92FF924B015C010E946F021B
:100540006B017C010E946F026C197D098E099F0965
:10055000683E734081059105A8F321E0821A910855
:10056000A108B10888EEC80E83E0D81EE11CF11C7A
:1005700081149104A104B10429F7FF90EF90DF905A
:10058000CF90BF90AF909F908F900895CF92DF92C1
:10059000EF92FF920F931F93CF93DF93CDB7DEB708
:1005A000C054D1400FB6F894DEBF0FBECDBF2FB7F9
:1005B000F8948091BE039091BF03A091C003B091C5
:1005C000C1032FBF409168045091690460916A048F
:1005D00070916B048C019D01041B150B260B370BCE
:1005E000B901A801403D57406105710590F4809123
:1005F0007004C05CDE4F0FB6F894DEBF0FBECDBFF7
:10060000DF91CF911F910F91FF90EF90DF90CF90EE
:1006100008958093680490936904A0936A04B0934A
:100620006B041092630410926204109261041092A1
:10063000600410925F0462E0809164040E943302BF
:1006400061E070E080E090E00E94940261E08091BF
:1006500064040E94330260E0809164040E94A70158
:10066000809165048551823020F58BE291E10197FC
:10067000F1F762E0809164040E943302809171047A
:1006800090E08230910538F0880F991F880F991FEC
:1006900005970197F1F7F89480E00E946F016F3F92
:1006A0007F4F8F4F9F4F61F410927004789480E0D9
:1006B000A0CF64E170E080E090E00E949402D9CF86
:1006C00081E00E946F016F3F7F4F8F4F9F4F61F31B
:1006D0008E010F5F1F4F6E018FEBC81A8EEFD80A85
:1006E000780180E00E946F01F7016083718382834B
:1006F000938381E00E946F01F70164837583868391
:100700009783F8E0EF0EF11CEC14FD0451F7789498
:1007100030E020E0F801C080D180E280F3804481A5
:10072000558166817781FFEFCF16DF06EF06FF0662
:1007300031F04F3F8FEF58076807780719F4109290
:100740007004B5CFF90183E0F595E7958A95E1F757
:10075000E15AFB4F8081880FC416D506E606F706DE
:1007600010F180832F5F3F4F085F1F4F2832310504
:1007700089F64091630420915F0480916004280F02
:100780003327331F80916104280F311D809162044B
:10079000820F932F911D99274817190681F681E042
:1007A0008093700426CF8160DCCF90910002891382
:1007B0000DC0E4E5F1E0E4919FEF90930002E23098
:1007C000E1F038F4EE2381F0E13089F060E00C9440
:1007D000A701E43049F110F1E530C1F790917300C1
:1007E0009D7F90937300F2CF10926E00EFCF9091A7
:1007F0006F009D7F90936F00E9CF909170009D7F77
:100800009093700091E09093B0009091B100987F28
:1008100094609093B1001092B300D8CF9091710082
:100820009D7F90937100D2CF909172009D7F9093A5
:100830007200CCCFDC01ED91FC910190F081E02DB4
:100840001994AF92BF92CF92DF92EF92FF920F93E3
:100850001F93CF93DF936C017B018B01040F151F56
:10086000EB015E01AE18BF08C017D10759F06991BE
:10087000D601ED91FC910190F081E02DC601199512
:10088000892B79F7C501DF91CF911F910F91FF90CF
:10089000EF90DF90CF90BF90AF900895FC01538D03
:1008A000448D252F30E0842F90E0821B930B54174A
:1008B00010F0CF96089501970895FC01918D828DD7
:1008C000981761F0A28DAE0FBF2FB11D5D968C9170
:1008D000928D9F5F9F73928F90E008958FEF9FEFAF
:1008E0000895FC01918D828D981731F0828DE80F6B
:1008F000F11D858D90E008958FEF9FEF0895FC0125
:10090000918D228D892F90E0805C9F4F821B9109F1
:100910008F739927089582EC93E00E947F0421E071
:10092000892B09F420E0822F0895FC01A48DA80FE3
:10093000B92FB11DA35ABF4F2C91848D90E0019621
:100940008F739927848FA689B7892C93A089B18941
:100950008C91837080648C93938D848D981306C0E2
:100960000288F389E02D80818F7D80830895EF9246
:10097000FF920F931F93CF93DF93EC0181E0888F59
:100980009B8D8C8D98131AC0E889F989808185FF29
:1009900015C09FB7F894EE89FF896083E889F989CB
:1009A00080818370806480839FBF81E090E0DF91CD
:1009B000CF911F910F91FF90EF900895F62E0B8D20
:1009C00010E00F5F1F4F0F731127E02E8C8D8E11DB
:1009D0000CC00FB607FCFACFE889F989808185FF42
:1009E000F5CFCE010E949504F1CFEB8DEC0FFD2FDA
:1009F000F11DE35AFF4FF0829FB7F8940B8FEA89FD
:100A0000FB8980818062CFCFCF93DF93EC01888D0B
:100A10008823B9F0AA89BB89E889F9898C9185FD79
:100A200003C0808186FD0DC00FB607FCF7CF8C9107
:100A300085FFF2CF808185FFEDCFCE010E94950426
:100A4000E9CFDF91CF91089580E090E0892B29F0E4
:100A50000E948B0481110E94000080E090E0892BAD
:100A600049F080E090E0892B29F00E94000081117C
:100A70000E94000080E090E0892B49F080E090E047
:100A8000892B29F00E94000081110E94000080E063
:100A900090E0892B49F080E090E0892B29F00E94BA
:100AA000000081110C9400000895089590E080E00A
:100AB0000895CF93DF93EC0160E08E810E94A7013F
:100AC00061E08E810E94A70160E08E810E94A701F3
:100AD0008BE891E00197F1F7DF91CF910895CF92E4
:100AE000DF92EF92FF920F931F93CF93DF936C01EE
:100AF0007C0187E0E80EF11CD0E0C0E0062F10E09A
:100B0000B8010C2E02C0759567950A94E2F76170E2
:100B1000F70181917F010E94A7012196C430D10580
:100B200079F7C601DF91CF911F910F91FF90EF9060
:100B3000DF90CF900C945905CF92DF92EF92FF9205
:100B40000F931F93CF93DF93EC01F62E642F8C81CC
:100B50000E94A7018D818F3F19F060E00E94A701DC
:100B60000F2D10E08F8584FF25C06E0187E0C80E31
:100B7000D11CF12CE12CB8010E2C02C075956795A3
:100B80000A94E2F76170F60181916F010E94A7015A
:100B9000FFEFEF1AFF0A88E0E816F10461F7CE01D3
:100BA000DF91CF911F910F91FF90EF90DF90CF9049
:100BB0000C945905B80184E0759567958A95E1F71D
:100BC000CE010E946F056F2DCE01DF91CF911F9155
:100BD0000F91FF90EF90DF90CF900C946F0540E065
:100BE000682F82E794E00C949C05CF93DF936130EB
:100BF00029F090918104986090938104609385041A
:100C00001092860490E49093870480938804805C1B
:100C10008093890461E0809176040E943302809180
:100C200077048F3F19F061E00E94330261E0809108
:100C300078040E943302C2E7D4E09E012257344078
:100C40008091810484FD0BC084E090E021962817F8
:100C5000390744F461E08E810E943302EECF88E0D0
:100C600090E0F4CF8BE39DE00197F1F760E0809195
:100C700076040E94A70160E0809178040E94A70199
:100C8000809177048F3F19F060E00E94A701809166
:100C9000810484FD39C063E082E794E00E946F051F
:100CA000CBE4D6E4CE010197F1F763E082E794E06C
:100CB0000E946F052197F1F763E082E794E00E94BC
:100CC0006F0583E592E00197F1F762E082E794E037
:100CD0000E946F058091810480620E94EF0584E08C
:100CE000809382048CE00E94EF0581E00E94EF0572
:100CF0008BE39FE10197F1F782E08093830486E024
:100D0000DF91CF910C94EF0580620E94EF058BE498
:100D100096E40197F1F78091810480620E94EF05CB
:100D200083E592E00197F1F78091810480620E944F
:100D3000EF05D0CF90918504691710F06FEF690F20
:100D4000E62FF0E0EE58FB4F9489890F80680C94F1
:100D5000EF0541E00E949C0581E090E00895FB01D1
:100D600001900020E9F73197AF01461B570BDC01DA
:100D7000ED91FC910280F381E02D19948F929F9266
:100D8000AF92BF92EF92FF920F931F93CF93DF9397
:100D9000CDB7DEB7A1970FB6F894DEBF0FBECDBFBB
:100DA0007C01FA01CB0119A2223008F42AE08E015D
:100DB0000F5D1F4F822E912CB12CA12CBF01A501DC
:100DC00094010E94560FF901CA016A300CF5605D6A
:100DD000D8016E938D01232B242B252B79F790E0DE
:100DE00080E0109721F0BD01C7010E94AF06A196D7
:100DF0000FB6F894DEBF0FBECDBFDF91CF911F912C
:100E00000F91FF90EF90BF90AF909F908F900895BB
:100E1000695CDECFCF93DF93BC0182EC93E00E944C
:100E2000AF06EC016FE172E082EC93E00E94AF0646
:100E30008C0F9D1FDF91CF9108952F923F924F927B
:100E40005F926F927F928F929F92AF92BF92CF925A
:100E5000DF92EF92FF921F93CF93DF93EC016A0131
:100E60007B01722EAB019601CB01B6010E94BE112F
:100E700062E272E0811126C046015701E894B7F89A
:100E80002FEF3FEF4FE75FE7C501B4010E94BE11AE
:100E900081110CC02FEF3FEF4FE75FE7C501B401B1
:100EA0000E94F40F66E272E0181664F02FEF3FEF35
:100EB0004FE75FE4C701B6010E944C111816B4F465
:100EC0006AE272E0CE01DF91CF911F91FF90EF9027
:100ED000DF90CF90BF90AF909F908F907F906F905A
:100EE0005F904F903F902F900C94AF062FEF3FEF05
:100EF0004FE75FECC701B6010E94F40F87FDE0CF1A
:100F000020E030E0A901C701B6010E94F40F312CA6
:100F1000212C87FF09C06DE2CE010E941A041C013A
:100F2000F7FAF094F7F8F09410E060E070E080E0F9
:100F30009FE3711641F020E030E040E251E40E946E
:100F4000F90F1F5FF6CFA70196010E94880F2B01B2
:100F50003C010E946B104B015C012AE0BC01A40122
:100F6000CE010E94BE067C01E20CF31C1123C1F1EC
:100F7000C501B4010E949A109B01AC01C301B201EA
:100F80000E94870F4B015C016EE2CE010E941A04A1
:100F9000E80EF91E115020F120E030E040E251E46B
:100FA000C501B4010E9451112B013C010E946B103C
:100FB0004B01B12CA12C2AE0B501A401CE010E9465
:100FC000BE06E80EF91EC501B4010E949A109B01ED
:100FD000AC01C301B2010E94870F4B015C01DACF63
:100FE000C701DF91CF911F91FF90EF90DF90CF90DD
:100FF000BF90AF909F908F907F906F905F904F9039
:101000003F902F9008950C94AF061F920F920FB649
:101010000F9211242F933F938F939F93AF93BF937E
:101020008091BE039091BF03A091C003B091C10312
:101030003091B90323E0230F2D3758F50196A11DF8
:10104000B11D2093B9038093BE039093BF03A09377
:10105000C003B093C1038091BA039091BB03A091E8
:10106000BC03B091BD030196A11DB11D8093BA03CD
:101070009093BB03A093BC03B093BD03BF91AF910A
:101080009F918F913F912F910F900FBE0F901F90C6
:10109000189526E8230F0296A11DB11DD2CF1F92ED
:1010A0000F920FB60F9211240BB60F922F933F930E
:1010B0004F935F936F937F938F939F93AF93BF9360
:1010C000EF93FF9380919C0390919D03A0919E03C9
:1010D000B0919F03892B8A2B8B2BE1F190918B038D
:1010E000E0918C03F0918D0380818927808380912A
:1010F0009C0390919D03A0919E03B0919F031816AD
:1011000019061A061B069CF480919C0390919D037E
:10111000A0919E03B0919F030197A109B10980930B
:101120009C0390939D03A0939E03B0939F03FF9114
:10113000EF91BF91AF919F918F917F916F915F914F
:101140004F913F912F910F900BBE0F900FBE0F90BC
:101150001F901895809100020E94D503E8CF1F923E
:101160000F920FB60F9211240BB60F922F933F934D
:101170004F935F936F937F938F939F93AF93BF939F
:10118000EF93FF9382EC93E00E949504FF91EF911F
:10119000BF91AF919F918F917F916F915F914F918F
:1011A0003F912F910F900BBE0F900FBE0F901F908D
:1011B00018951F920F920FB60F9211240BB60F9233
:1011C0002F938F939F93EF93FF93E091D203F0912E
:1011D000D3038081E091D803F091D90382FD1DC033
:1011E00090818091DB038F5F8F732091DC038217E6
:1011F00041F0E091DB03F0E0EE53FC4F958F8093DC
:10120000DB03FF91EF919F918F912F910F900BBE78
:101210000F900FBE0F901F9018958081F2CFE2ECD7
:10122000F3E01382128288EE93E0A0E0B0E08483C2
:101230009583A683B78385E092E09183808385ECD4
:1012400090E09587848784EC90E09787868780EC90
:1012500090E0918B808B81EC90E0938B828B82EC81
:1012600090E0958B848B86EC90E0978B868B118E2B
:10127000128E138E148EE2E7F4E01382128287E15D
:1012800092E09183808380E184838FEF858381E185
:10129000868387E1878389E180878BE181878DE180
:1012A00082871386148615861686178661E080E18C
:1012B0000E94F505AFE5B4E082E115968C93159791
:1012C0008BE016968C931697E1E4F2E0E491179682
:1012D000EC931797EBEFF1E0E4911896EC931897E5
:1012E00040E85EE360E070E01D964D935D936D9382
:1012F0007C9350970895789484B5826084BD84B5BA
:10130000816084BD85B5826085BD85B5816085BD00
:1013100080916E00816080936E00109281008091B8
:101320008100826080938100809181008160809340
:101330008100809180008160809380008091B10065
:1013400084608093B1008091B00081608093B00090
:1013500080919100826080939100809191008160E2
:1013600080939100809190008160809390008091A3
:10137000A10082608093A1008091A1008160809390
:10138000A1008091A00081608093A0008091210144
:1013900082608093210180912101816080932101ED
:1013A0008091200181608093200180917A00846087
:1013B00080937A0080917A00826080937A00809195
:1013C0007A00816080937A0080917A0080688093AF
:1013D0007A001092C100E091D203F091D30382E031
:1013E0008083E091CE03F091CF031082E091D0038F
:1013F000F091D10380E180831092DA03E091D6036B
:10140000F091D70386E08083E091D403F091D50377
:10141000808180618083E091D403F091D503808145
:1014200088608083E091D403F091D5038081806847
:101430008083E091D403F091D50380818F7D8083F8
:1014400061E085E20E94330261E088E00E9433029D
:1014500060E088E00E94A7011092A80361E086E0A6
:101460000E94330260E087E00E94330264E084E17E
:101470000E94F50562E0809164040E9433022FB758
:10148000F8948091BE039091BF03A091C003B091E6
:10149000C1032FBF805D9740A109B1098093680403
:1014A00090936904A0936A04B0936B0487E38093DC
:1014B000710481E00E94EF058BE39FE10197F1F752
:1014C00060E080E00E949A066EE272E082E794E0BB
:1014D0000E94030861E080E00E949A0662E472E0E4
:1014E00082E794E00E94030861E085E00E949A068A
:1014F00067E472E082E794E00E9403086FED82E700
:1015000094E00E941A0469E472E082E794E00E9489
:10151000030861E08AE00E949A066BE472E082E7C9
:1015200094E00E94030861E08FE00E949A0660E563
:1015300072E082E794E00E94030862E080E00E948B
:101540009A0663E572E082E794E00E94030862E095
:1015500085E00E949A0667E472E082E794E00E94C8
:1015600003086FED82E794E00E941A0469E472E0D8
:1015700082E794E00E94030862E08AE00E949A06F3
:1015800068E572E082E794E00E94030862E08FE081
:101590000E949A0667E472E082E794E00E940308E2
:1015A0006FED82E794E00E941A0469E472E082E73A
:1015B00094E00E94030863E080E00E949A066DE5D3
:1015C00072E082E794E00E94030863E089E00E94F1
:1015D0009A0667E472E082E794E00E94030807E459
:1015E000CFE3DFE1AEE02A2EA2E03A2E0E94C6024F
:1015F0000E94C602882351F0809165048B3030F040
:101600008D3058F08551823008F440C0812C912CE7
:10161000F0ECAF2EFFE7BF2E1EC06091600470E0BB
:1016200090E080E00E949C102DEC3CEC4CEC5DE3E3
:101630000E9451116B017C0160915F0470E090E0A9
:1016400080E00E949C109B01AC01C701B6010E9482
:10165000880F4B015C018092B1039092B203A0927B
:10166000B303B092B4030E94C602882341F0809174
:1016700065048C3009F4FDC0D8F48B3091F1C12C95
:10168000D12C60ECE62E6FE7F62E55C060915F041A
:101690007091600476276727762790E080E00E94AB
:1016A0009A102DEC3CEC4CEC5DE30E945111D1CF33
:1016B0008551823020F770906104672D70E0762F9D
:1016C000662766277F7780916204682B90E080E030
:1016D0000E949A102DEC3CEC4CEC5DE30E94511101
:1016E000E4C06091610470E090E080E00E949A1094
:1016F0006B017C011091620417FF0AC0AC019B01D1
:1017000060E070E080E89FEB0E94870F6B017C0136
:10171000612F6F7070E090E080E00E949C102DECD3
:101720003CEC4CEC5DE30E945111A70196010E9434
:10173000880F6B017C01C092B503D092B603E09292
:10174000B703F092B803A501940160E070E088EC63
:1017500092E40E94870F20E030E040EA50E40E94CB
:10176000F90F9B01AC01C701B6010E94870F60937E
:10177000AD037093AE038093AF039093B003809159
:101780007B00886080937B0000937C0080917A00CE
:10179000806480937A0080917A0086FDFCCF20914E
:1017A000780030917900032E000C440B550B2F5F0D
:1017B000334041095109A4E6B0E00E944B0F21E0FB
:1017C0003CEF4FEF5FEF0E942C0FCA01B90162534B
:1017D0007109810991090E949C1020E030E040E0ED
:1017E00051E40E94870F6B017C01C092A903D09243
:1017F000AA03E092AB03F092AC034090AD0350908B
:10180000AE036090AF037090B00320E030E040E89A
:101810005FE3C301B2010E94880F4B015C0120E02D
:1018200030E040E450E4C301B2010E94880F2B0174
:101830003C01A7019601C501B4010E94F40F1816DE
:10184000ECF1A7019601C301B2010E944C1187FD82
:1018500035C08091A803882309F443C087E692E04D
:101860000E940A0760E088E00E94A7011092A80386
:1018700038C070906104672D70E090E080E00E94B5
:101880009A106B017C01609162046F7070E090E0CF
:1018900080E00E949C102DEC3CEC4CEC5DE30E943F
:1018A0005111A70196010E94880F6B017C0177FE00
:1018B00042CFF7FAF094F7F8F0943DCFA7019601E4
:1018C000C301B2010E94F40F87FF49C089EA92E088
:1018D0000E940A0761E088E00E94A70181E08093EE
:1018E000A80320E030E044ED51E46091A903709139
:1018F000AA038091AB039091AC030E944C1118167F
:101900000CF0B9C1809100028532C9F5E4E5F1E03F
:10191000149117FDA1C161E085E20E9433021123F9
:1019200009F404C1123009F018C18091B100887F18
:1019300083608093B10089EF8093B3008FEF9FEFB6
:10194000DC0180939C0390939D03A0939E03B0932E
:101950009F03809170008260809370007DC1A70119
:101960009601C501B4010E944C1118161CF485EEB5
:1019700092E076CF82E293E00E940A07B2CF8F3FD7
:1019800009F06AC185E280930002E4E5F1E0149178
:10199000812F1F3F09F460C1123009F468C060F460
:1019A000112379F1113009F444C087FD55C161E07C
:1019B00085E20E943302B6CF143009F499C008F4CE
:1019C00078C0153091F7109220011092210180917A
:1019D00021018860809321018091210181608093A1
:1019E0002101F1018491E82FF0E0EE0FFF1FE15992
:1019F000FE4F85919491E4E5F2E084918093880311
:101A00008ACF14BC15BC84B5826084BD85B5816065
:101A100085BDF1018491E82FF0E0EE0FFF1FE15941
:101A2000FE4F85919491E4E5F2E0849180938F03D9
:101A300072CF1092800010928100809181008860A6
:101A40008093810080918100816080938100F10109
:101A50008491E82FF0E0EE0FFF1FE159FE4F8591D2
:101A60009491E4E5F2E0849180938E0354CF109238
:101A7000B0001092B1008091B00082608093B000FD
:101A80008091B10081608093B100F1018491E82FD1
:101A9000F0E0EE0FFF1FE159FE4F85919491909376
:101AA0008D0380938C03E4E5F2E0849180938B03B3
:101AB00032CF109290001092910080919100886036
:101AC0008093910080919100816080939100F10159
:101AD0008491E82FF0E0EE0FFF1FE159FE4F859152
:101AE0009491E4E5F2E0849180938A0313E013CFAC
:101AF0001092A0001092A1008091A10088608093B4
:101B0000A1008091A10081608093A100F1018491E6
:101B1000E82FF0E0EE0FFF1FE159FE4F8591949101
:101B2000E4E5F2E0849180938903F5CE85B5887F62
:101B3000836085BD8CE787BD8FEF9FEFDC018093CD
:101B4000A4039093A503A093A603B093A703809149
:101B50006E00826080936E007FC01130D9F4809156
:101B60008100887F816080938100D0938900C09339
:101B700088008FEF9FEFDC018093A0039093A10377
:101B8000A093A203B093A30380916F00826080931F
:101B90006F0062C01330D9F480919100887F81601A
:101BA00080939100D0939900C09398008FEF9FEF9E
:101BB000DC018093980390939903A0939A03B093C8
:101BC0009B038091710082608093710045C0143046
:101BD000D9F48091A100887F81608093A100D09387
:101BE000A900C093A8008FEF9FEFDC0180939403BE
:101BF00090939503A0939603B093970380917200FE
:101C000082608093720028C01530D9F48091210140
:101C1000887F816080932101D0932901C09328019E
:101C20008FEF9FEFDC018093900390939103A0933B
:101C30009203B0939303809173008260809373004A
:101C40000BC0123009F406C10CF0F9C0112309F4DD
:101C5000FFC0113009F489CF68EE73E080E090E0B6
:101C60000E94940285E20E94D50364EF71E080E057
:101C700090E00E9494026DE673E082EC93E00E9493
:101C800003084091B5035091B6036091B70370917A
:101C9000B80322E082EC93E00E941D0766E473E043
:101CA00082EC93E00E9403084091B1035091B2038B
:101CB0006091B3037091B40322E082EC93E00E9440
:101CC0001D0761E573E082EC93E00E9403084091F8
:101CD000AD035091AE036091AF037091B00322E069
:101CE00082EC93E00E941D0760E673E082EC93E0D3
:101CF0000E9403084091A9035091AA036091AB038D
:101D00007091AC0322E082EC93E00E941D0764E72F
:101D100073E082EC93E00E9403084091A80350E036
:101D200070E060E02AE082EC93E00E94BE066FE182
:101D300072E082EC93E00E94AF0661E085E00E94D1
:101D40009A064091B5035091B6036091B703709124
:101D5000B80320E082E794E00E941D076FED82E760
:101D600094E00E941A0469E472E082E794E00E9421
:101D7000030861E08FE00E949A064091B103509100
:101D8000B2036091B3037091B40320E082E794E062
:101D90000E941D0761E572E082E794E00E9403085B
:101DA00062E085E00E949A064091AD035091AE0337
:101DB0006091AF037091B00320E082E794E00E944D
:101DC0001D076FED82E794E00E941A0469E472E057
:101DD00082E794E00E94030862E08FE00E949A0686
:101DE0004091A9035091AA036091AB037091AC0399
:101DF00020E082E794E00E941D076FED82E794E007
:101E00000E941A0469E472E082E794E00E940308E9
:101E100063E089E00E949A064091A80350E070E0D8
:101E200060E02AE082E794E00E94BE066AEF70E07C
:101E300080E090E00E9494020E942405D7CB1430E9
:101E400009F4CDCE0CF4AECE153009F4E5CE04CFB6
:101E50008FE371CE8FE370CD052E97FB1EF40094B7
:101E60000E94430F57FD07D00E94560F07FC03D076
:101E70004EF40C94430F50954095309521953F4F6B
:101E80004F4F5F4F089590958095709561957F4F66
:101E90008F4F9F4F08950E94780FA59F900DB49F7C
:101EA000900DA49F800D911D11240895A1E21A2E7A
:101EB000AA1BBB1BFD010DC0AA1FBB1FEE1FFF1FEE
:101EC000A217B307E407F50720F0A21BB30BE40B3E
:101ED000F50B661F771F881F991F1A9469F7609585
:101EE0007095809590959B01AC01BD01CF0108953F
:101EF000A29FB001B39FC001A39F700D811D11244B
:101F0000911DB29F700D811D1124911D089550588F
:101F1000BB27AA270E949F0F0C9412110E94041144
:101F200038F00E940B1120F039F49F3F19F426F489
:101F30000C9401110EF4E095E7FB0C94FB10E92FD3
:101F40000E94231158F3BA17620773078407950795
:101F500020F079F4A6F50C9445110EF4E0950B2EC3
:101F6000BA2FA02D0B01B90190010C01CA01A001EB
:101F70001124FF27591B99F0593F50F4503E68F146
:101F80001A16F040A22F232F342F4427585FF3CF87
:101F9000469537952795A795F0405395C9F77EF458
:101FA0001F16BA0B620B730B840BBAF09150A1F0A1
:101FB000FF0FBB1F661F771F881FC2F70EC0BA0F27
:101FC000621F731F841F48F4879577956795B795AF
:101FD000F7959E3F08F0B0CF9395880F08F09927AA
:101FE000EE0F9795879508950E94D71008F481E029
:101FF00008950E940D100C9412110E940B1158F0BC
:102000000E94041140F029F45F3F29F00C94FB106A
:1020100051110C9446110C9401110E94231168F384
:102020009923B1F3552391F3951B550BBB27AA2791
:1020300062177307840738F09F5F5F4F220F331FCB
:10204000441FAA1FA9F335D00E2E3AF0E0E832D093
:1020500091505040E695001CCAF72BD0FE2F29D096
:10206000660F771F881FBB1F261737074807AB0768
:10207000B0E809F0BB0B802DBF01FF2793585F4FDD
:102080003AF09E3F510578F00C94FB100C944611E9
:102090005F3FE4F3983ED4F3869577956795B795BF
:1020A000F7959F5FC9F7880F911D9695879597F9CA
:1020B0000895E1E0660F771F881FBB1F6217730743
:1020C0008407BA0720F0621B730B840BBA0BEE1F58
:1020D00088F7E09508950E942B1188F09F5798F09B
:1020E000B92F9927B751B0F0E1F0660F771F881F1D
:1020F000991F1AF0BA95C9F714C0B13091F00E9437
:102100004511B1E008950C944511672F782F882769
:10211000B85F39F0B93FCCF3869577956795B3955D
:10212000D9F73EF490958095709561957F4F8F4FCC
:102130009F4F0895E89409C097FB3EF490958095D1
:10214000709561957F4F8F4F9F4F9923A9F0F92F7D
:1021500096E9BB279395F695879577956795B795FB
:10216000F111F8CFFAF4BB0F11F460FF1BC06F5FE1
:102170007F4F8F4F9F4F16C0882311F096E911C0F3
:10218000772321F09EE8872F762F05C0662371F014
:1021900096E8862F70E060E02AF09A95660F771F28
:1021A000881FDAF7880F9695879597F90895990F04
:1021B0000008550FAA0BE0E8FEEF16161706E80711
:1021C000F907C0F012161306E407F50798F0621B32
:1021D000730B840B950B39F40A2661F0232B242B07
:1021E000252B21F408950A2609F4A140A6958FEF26
:1021F000811D811D089597F99F6780E870E060E078
:1022000008959FEF80EC089500240A94161617068F
:1022100018060906089500240A94121613061406D7
:1022200005060895092E0394000C11F4882352F03A
:10223000BB0F40F4BF2B11F460FF04C06F5F7F4FF2
:102240008F4F9F4F089557FD9058440F551F59F0D9
:102250005F3F71F04795880F97FB991F61F09F3F93
:1022600079F087950895121613061406551FF2CFBC
:102270004695F1DF08C0161617061806991FF1CF0C
:1022800086957105610508940895E894BB27662733
:102290007727CB0197F908950E94D71008F48FEFA4
:1022A00008950E9464110C9412110E94041138F0D8
:1022B0000E940B1120F0952311F00C94FB100C944C
:1022C000011111240C9446110E94231170F3959F63
:1022D000C1F3950F50E0551F629FF001729FBB271D
:1022E000F00DB11D639FAA27F00DB11DAA1F649FB9
:1022F0006627B00DA11D661F829F2227B00DA11D6C
:10230000621F739FB00DA11D621F839FA00D611DF1
:10231000221F749F3327A00D611D231F849F600D12
:10232000211D822F762F6A2F11249F5750409AF03B
:10233000F1F088234AF0EE0FFF1FBB1F661F771FC7
:10234000881F91505040A9F79E3F510580F00C9492
:10235000FB100C9446115F3FE4F3983ED4F386954E
:1023600077956795B795F795E7959F5FC1F7FE2B32
:10237000880F911D9695879597F908950E94D7101B
:10238000880B990B0895EE0FFF1F881F8BBF0790D6
:0A239000F691E02D1994F894FFCFA8
:10239A00FF00000000B70421044E0404057F045D19
:1023AA0004710400000000A9062104560555050D14
:1023BA000A006E616E00696E66006F7666004F7085
:1023CA00656E4368696C6C2053797374656D207609
:1023DA003200456E763A003000430048756D3A0087
:1023EA003025004450743A005774723A00436869C1
:1023FA006C6C65723A200054656D70657261747513
:10240A00726520696E207461726765742072616EEC
:10241A0067652C20667269646765206973206F6E30
:10242A002C20736F20737769746368696E672069FB
:10243A0074206F6666202E2E0054656D7065726179
:10244A00747572652069732061626F7665206D61AB
:10245A0078696D756D207461726765742C20737765
:10246A0069746368696E6720667269646765206F5C
:10247A006E202E2E0054656D7065726174757265DA
:10248A002069732062656C6F77206D696E696D755E
:10249A006D207461726765742C2073776974636840
:1024AA00696E6720667269646765206F6666202EAA
:1024BA002E00436F6E646974696F6E206D65742CAB
:1024CA002062757420756E6B6E6F776E20796574F5
:1024DA00207768792E00207C2048756D69643A203F
:1024EA0000207C2044657720506F696E743A200082
:1024FA00207C205265736572766F69722054656D0F
:10250A00703A2000207C2046726964676520537403
:08251A00617475733A200000A2
:00000001FF
